:020000040800F2
:1000000000A00020E9400008D13D0008DD3D0008C7
:10001000E53D0008ED3D0008F53D0008000000004A
:10002000000000000000000000000000FD3D00088E
:10003000093E000800000000153E0008714000085D
:100040002D4100082D4100082D4100082D410008D8
:100050002D4100082D4100082D4100082D410008C8
:100060002D4100082D4100082D4100082D410008B8
:10007000C13E0008613E00082D4100082D410008E6
:100080002D4100082D4100082D410008313E000897
:10009000213E00082D4100082D4100082D41000897
:1000A0002D4100082D4100082D4100082D41000878
:1000B000914000082D410008F53E00082D41000840
:1000C0002D4100082D4100082D4100082D41000858
:1000D0002D4100082D4100082D4100082D41000848
:1000E0002D4100082D410008413E00082D41000827
:1000F0002D4100082D4100082D4100082D41000828
:100100000000000000000000000000002D41000879
:100110002D4100082D4100082D41000849400008EC
:100120002D4100082D4100082D4100082D410008F7
:100130002D4100082D4100080000000000000000D3
:100140002D4100082D4100082D410008000000004D
:10015000000000000000000000000000000000009F
:100160000000000000000000513E00082D41000882
:100170002D41000800000000000000000000000009
:10018000000000002D41000810B5064C2378002B1C
:1001900007D1054B002B02D00448AFF300800123A8
:1001A000237010BD3805002000000000B04A000890
:1001B000084B10B5002B03D007490848AFF3008067
:1001C00007480368002B00D110BD064B002BFBD065
:1001D0009847F9E7000000003C050020B04A0008FD
:1001E000340500200000000080B582B000AF02009E
:1001F000BB1D1A80BB1D1B88002B05D1084B1B683B
:1002000001221A82002306E0064B1B681B689847F0
:10021000034B1B680A331800BD4602B080BDC046C0
:10022000B0690020AC69002080B500AF104B1B689E
:10023000DA78104B5B789A4215D80D4B1B689B7887
:10024000002B10D10A4B1B689B88002B0BD1084B4D
:100250001A68074B1B68DB789372074B1B685B6857
:100260009847002300E002231800BD4680BDC04629
:10027000B069002038000020AC69002080B582B051
:1002800000AF0200BB1D1A80BB1D1B88002B05D1CF
:10029000084B1B6801221A82002306E0064B1B68EC
:1002A0009B689847034B1B680C331800BD4602B08F
:1002B00080BDC046B0690020AC69002090B583B015
:1002C00000AF1F4B1B689A691E4B1B6858791D4B6A
:1002D0001B68DB78FC1D1900904703002370194B45
:1002E0001B689B7A002B25D0FB1D1B78002B09D1A6
:1002F000144B1B681B79002B04D1124B1B689B7895
:10030000002B01D0022316E0FB1D1B78002B11D11E
:100310000D4B1B68DB6898470A4B1A68094B1B6832
:100320005B79D372074B1A68064B1B68DB78137333
:10033000002300E002231800BD4603B090BDC04674
:1003400088690020B0690020AC69002080B584B0C5
:1003500000AF0200BB1D1A80BB1D1B88002B05D1FE
:10036000504B1B6802221A82002396E04E4B00225B
:100370001A804C4B1B681B781A007F23134030D126
:10038000484B1A680D23FB18527A1A700D23FB187C
:100390001B782022134007D0434B1B7802221343C3
:1003A000DAB2414B1A7006E03F4B1B7802229343AE
:1003B000DAB23D4B1A700D23FB181B784022134014
:1003C00007D0394B1B7801221343DAB2364B1A702F
:1003D0005EE0354B1B7801229343DAB2324B1A7040
:1003E00056E0304B1B681B781A007F231340012B0B
:1003F00001D12D4B51E02B4B1B681B781A007F233A
:100400001340022B42D1274B1A680F23FB18527955
:100410001A700E23FB180F22BA1812780F210A4007
:100420001A700F23FB181B785BB2002B15DA0E2312
:10043000FB181B789B001D4A944663441B689BB2C3
:100440001A0030231340102B22D1174B1B780122A6
:100450001343DAB2144B1A701AE00E23FB181B7800
:100460009B00124A944663441B689BB21A00C02347
:100470009B011A4080235B019A4209D10A4B1B78E9
:1004800001221343DAB2084B1A7001E0002304E0A2
:10049000074B1B681B699847034B1800BD4604B007
:1004A00080BDC046B0690020AC0B0020005C00405D
:1004B000AC69002090B587B000AF6E4B1B681B780D
:1004C0001A007F2313403B613B69002B0AD1694B23
:1004D0001A68684B1B685B7A20218B43DBB253722E
:1004E0000023C3E03B69022B00D0BEE0614B1B68D8
:1004F0005B88002B04D15F4B1B681B79002B01D05C
:100500000223B3E05C4BFB605A4B1B685B79BB601A
:10051000BB68802293437B607B683B60554B1B68C4
:100520005B795BB2002B0BDA3B689B00534A944625
:1005300063441B689BB21A00302313407B610BE0BD
:100540003B689B004D4A944663441B689BB21A006B
:10055000C0239B0113407B61FB681B781A007B68FA
:100560009A4207D97B69002B04D0424B1B689B7AC7
:10057000002B01D1022379E0BB688022134017D001
:100580003B689B003D4A944663441B689BB21A003B
:1005900030231340102B62D13B68DBB2180001F00E
:1005A0008FFD3B68DBB23021180001F063FC56E0A0
:1005B0003B689B00314A944663441B689BB21A0017
:1005C000C0239B011A4080235B019A4247D13B68BC
:1005D000002B24D13B68D8B2294B2C229B5C9BB2C8
:1005E000190001F03DFE3B689B00244A9446634499
:1005F0001B689BB2234A13409CB280235B0163407B
:100600009CB280239B0163409CB23B689B001B4AC9
:10061000944663441C4A224392B21A601FE03B682E
:10062000DBB2180001F01AFD3B689B00134A9446A8
:1006300063441B689BB2134A13409CB280235B0146
:1006400063409CB280239B0163409CB23B689B004B
:100650000A4A944663440C4A224392B21A600B4BF6
:100660001B685B699847002300E002231800BD4621
:1006700007B090BDB069002038000020005C004049
:100680003C0000208FBFFFFF8080FFFFAC6900208F
:1006900090B585B000AF3C4B1B685B79BB60BB6815
:1006A000802293437B607B683B60374B1B685B79A0
:1006B0005BB2002B0BDA3B689B00344A94466344E0
:1006C0001B689BB21A0030231340FB600BE03B68B1
:1006D0009B002E4A944663441B689BB21A00C023B9
:1006E0009B011340FB602A4B1B781A003B689A421F
:1006F0000CD9254B1B685B88002B07D1FB68002BAE
:1007000004D0214B1B689B7A002B01D1022336E0D9
:10071000BB688022134016D03B689B001B4A94465E
:1007200063441B689BB21B4A13409CB21023634076
:100730009CB23B689B00154A94466344164A224388
:1007400092B21A6016E03B689B00104A94466344DC
:100750001B689BB2114A13409CB280235B0163402B
:100760009CB23B689B00094A944663440A4A224370
:1007700092B21A600A4B1B689B69984700231800C5
:10078000BD4605B090BDC046B0690020005C004089
:1007900038000020BF8FFFFF8080FFFF8FBFFFFF6B
:1007A000AC69002080B500AF084B1A68074B1B6886
:1007B0005B7A20210B43DBB25372054B1B68DB696C
:1007C000984700231800BD4680BDC046B069002090
:1007D000AC69002080B584B000AF02003960BB1D59
:1007E0001A800D4B1B685B8AFB60BB1D1B88002BAE
:1007F0000AD1094B1B683A689188FA6892B28A1A42
:1008000092B21A82002303E03B681A68FB68D3188F
:100810001800BD4604B080BDB069002080B584B02A
:1008200000AF3A4B1B681033BB60BB681B887B6012
:10083000BB689B68002B2ED07B68002B2BD0BB683D
:100840009B88FB60FA687B689A4201D97B68FB60F1
:10085000BB689B68FA6892B21000984703003B603F
:10086000BB681A88FB689BB2D31A9AB2BB681A801D
:10087000BB685A88FB689BB2D3189AB2BB685A808F
:10088000002001F0B1FC03001900FB689AB23B683C
:10089000180003F0D7FCBB681B88002B0AD01C4B48
:1008A000C02292011A800021002001F0B9FC194BEE
:1008B00030221A80BB681A88BB689B889A4204D38E
:1008C000124B1B6803221A721CE0BB681B88002BAA
:1008D00004D00E4B1B6805221A7213E0BB681B88FC
:1008E000002B0FD1094B1B6806221A720A4B1B689A
:1008F0009BB20A4A944663445B0000221A60054B8F
:1009000030221A80C046BD4604B080BDB0690020C8
:10091000AE0B0020B00B0020505C004002300020E5
:1009200080B586B000AF3B4B1B681033FB60FB68A3
:100930001B88BB60374B1B681B7A7B61BB68002B35
:100940001ED17B69042B1BD1334B1B78012B11D19A
:10095000324B1B689BB2324A944663445B000022D0
:100960001A60304B30221A8004237B612A4B00220C
:100970001A7046E007237B612A4B10221A8040E060
:10098000FB689B883B61BA683B699A4201D80423A3
:1009900000E002237B613A69BB689A4201D9BB68D7
:1009A0003B61FB689B683A6992B21000984703006C
:1009B0007B60002001F0FCFB030019003B699AB248
:1009C0007B68180003F0FEFB3B699BB21900002016
:1009D00001F026FCFB681A883B699BB2D31A9AB2D5
:1009E000FB681A80FB685A883B699BB2D3189AB29D
:1009F000FB685A800B4B30221A800B4BC0229201AD
:100A00001A80044B1B687A69D2B21A72C046BD467E
:100A100006B080BDB069002054050020505C004045
:100A200002300020B00B0020AE0B002090B585B046
:100A300000AF0F23FB1802221A706C4B1B685B7807
:100A40007B606A4B1B681B781A007F23134000D021
:100A500062E07B68092B06D10F23FC18FFF7E4FB4B
:100A6000030023708AE07B68052B1CD15F4B1B6859
:100A7000DB785BB2002B0EDB5C4B1B689B78002B9A
:100A800009D15A4B1B689B88002B04D1574B1B681C
:100A90009B7A002B02D00823BB609DE00F23FB183C
:100AA00000221A706AE07B68032B15D14F4B1B683C
:100AB000DB78012B0BD14D4B1B689B88002B06D19B
:100AC0000F23FC18FFF76EFE0300237056E00F2380
:100AD000FB1802221A7051E07B68012B4ED1434B68
:100AE0001B68DB78012B12D1404B1B689B88002BC5
:100AF0000DD13E4B1B685B7A1A002023134006D0B1
:100B00000F23FC18FFF7D6FC0300237036E00F23F9
:100B1000FB1802221A7031E0344B1B681B781A0054
:100B20007F231340012B09D17B680B2B26D10F2388
:100B3000FC18FFF7C3FB030023701FE02B4B1B685F
:100B40001B781A007F231340022B13D17B68012BE3
:100B500006D10F23FC18FFF7ADFC030023700DE056
:100B60007B68032B0AD10F23FC18FFF791FD0300CC
:100B7000237003E00F23FB1802221A700F23FB18C7
:100B80001B78002B12D01A4B1B685B697A68D2B2B3
:100B90000F217C1810009847030023700F23FB18C7
:100BA0001B78032B02D10923BB6015E00F23FB1830
:100BB0001B78002B02D00823BB600DE00623BB602E
:100BC0000C4B1B689BB20C4A944663445B000022AA
:100BD0001A600A4B30221A80044B1B68BA68D2B2E2
:100BE0001A72C046BD4605B090BDC046B06900202F
:100BF00088690020505C004002300020B00B0020CB
:100C000090B58BB000AFC24B1B685B78BB61002313
:100C10007B6200237B61BB69062B2CD1BC4B1B681C
:100C20001B781A007F23134000D0E5E0B84B1A6808
:100C30001323FB1892781A701323FB181B78012BCF
:100C400004D1B44B1B68DB697B62D5E01323FB182E
:100C50001B78022B04D1AF4B1B681B6A7B62CBE075
:100C60001323FB181B78032B00D0C5E0A94B1B688E
:100C70005B6A7B62C0E0BB69002B00D081E0A44BC3
:100C80001B685B88002B00D07BE0A14B1B68DB88D6
:100C9000022B00D075E09E4B1B681B79002B00D007
:100CA0006FE09B4B1B681B781A007F23134007D112
:100CB000974B1B689B88002B02D1974B7B629AE075
:100CC000934B1B681B781A007F231340012B14D110
:100CD000904B1B689A698E4B1B685B79002118004A
:100CE0009047031E00D086E0894B1B689B7A002B3F
:100CF00000D180E0884B7B627DE0854B1B681B78D0
:100D00001A007F231340022B00D074E0804B1B6835
:100D10005B791A000F231340FB607D4B1B685B79E6
:100D20001A0070231340BB60794B1B685B795BB280
:100D3000002B0BDAFB689B00784A944663441B68DF
:100D40009BB21A0030231340FB610BE0FB689B0051
:100D5000724A944663441B689BB21A00C0239B01ED
:100D60001340FB616E4B1B781A00FB689A4242D914
:100D7000BB68002B3FD1FB69002B3CD0664B7B62EC
:100D800039E0BB69082B09D1614B1B681B781A003D
:100D90007F23134030D1634B7B622DE0BB690A2B6C
:100DA0002AD15B4B1B681B781A007F231340012B51
:100DB00022D1574B1B689B7A002B1DD0544B1B68CC
:100DC0005B88002B18D1524B1B681B79002B13D169
:100DD0004F4B1B68DB88012B0ED14E4B1B689A6969
:100DE0004B4B1B685B79002118009047031E03D111
:100DF0004D4B7B6200E0C0467B6A002B10D0444B19
:100E00001B687A6992B25A82414B1B687A6A9A616E
:100E10007B6A002098472323FB1800221A7015E0F4
:100E20003C4B1B681A693A4B1B685B7823217C1882
:100E300018009047030023702323FB181B78032B13
:100E400004D1334B1B6809221A727CE0304B1B68BB
:100E50001B8A364A934204D12D4B1B6809221A7211
:100E600071E02323FB181B78022B04D0284B1B684E
:100E70001B8A002B04D1264B1B6808221A7262E0E1
:100E8000234B1B681B785BB2002B53DA204B1B688B
:100E9000DB887B601E4B1B681B8A1A007B689A42AA
:100EA00005D91B4B1B687A6892B21A8225E0184B51
:100EB0001B681A8A164B1B68DB889A421DD2144B9A
:100EC0001B681A8A134B1B682C215B5C9BB29A42ED
:100ED00003D2174B00221A700FE00D4B1B681B8AC0
:100EE00018000C4B1B682C229B5C190003F0C2FC01
:100EF0000B1E02D10E4B01221A70054B1A68054BCE
:100F00001B682C215B5C9BB29382FFF709FD1AE002
:100F1000B0690020886900204D030008005C004093
:100F200038000020E90100087D020008FFFF0000F2
:100F300054050020054B1B6803221A72044BC02283
:100F400092011A80C046BD460BB090BDB06900202A
:100F5000AE0B002090B583B000AFBB1D01221A80FC
:100F6000314B1B689BB2314A944663445B001B685B
:100F70009BB25B002E4A944663443B602D4B1B683A
:100F80001B7A092B3AD02B4B1A683B68591C3960E5
:100F90001B781370274B1A683B68591C39601B7803
:100FA00053703A68BB1D1B885B00D3183B60214B14
:100FB0001C683B689A1C3A601B88180001F0BEFA56
:100FC000030063803A68BB1D1B885B00D3183B603D
:100FD000184B1C683B689A1C3A601B88180001F08B
:100FE000ADFA0300A3803A68BB1D1B885B00D318D1
:100FF0003B60104B1B683A681288DA800D4B1B6807
:1010000001221A720B4B1B68DB88002B02D1FFF701
:101010000DFD01E0FFF7F4FD00F090F8030018006B
:10102000BD4603B090BDC046505C00400430002077
:1010300000600040B069002080B582B000AF1F4B57
:101040001B681B7A7B607B68022B02D07B68042BB9
:1010500006D1FFF765FC194B1B681B7A7B6021E00A
:101060007B68062B1CD1154B1B685B78052B10D1B8
:10107000124B1B681B781A007F23134009D10F4BBA
:101080001B68DB78180000F081F80D4B1B681B6AA9
:1010900098470C4B1B689B68984708237B6001E0CE
:1010A00008237B60054B1B687A68D2B21A7200F085
:1010B00045F803001800BD4602B080BDB0690020AD
:1010C000AC6900208869002080B582B000AF194B60
:1010D0001B681B7A7B607B68022B02D07B68042B29
:1010E00002D108237B6018E07B68032B02D07B6869
:1010F000052B06D1FFF792FB0E4B1B681B7A7B601A
:101100000BE07B68072B06D10B4B1B68DB6898470D
:1011100008237B6001E008237B60064B1B687A682C
:10112000D2B21A7200F00AF803001800BD4602B0ED
:1011300080BDC046B06900208869002080B500AF3E
:101140000E4B2C229B5C9BB21900002001F088F80A
:101150000B4B1B681B7A082B06D10A4B80225201CD
:101160001A80094B10221A80054B1B681B7A093B19
:101170005A425341DBB21800BD4680BD3C000020FE
:10118000B0690020AE0B0020B00B002080B584B009
:1011900000AF0200FB1D1A70174B1B78BB600023C9
:1011A000FB6019E0FB68DBB29B00144A9446634481
:1011B000FA68D2B2920011498C466244126892B227
:1011C00011000F4A0A400F490A43F968C9B20A439D
:1011D0001A60FB680133FB60FA68BB689A42E1D38E
:1011E000094BFA1D1278802149420A43D2B21A6093
:1011F000C046BD4604B080BD38000020005C004001
:101200000F0F0000808000004C5C004080B500AFF4
:10121000C046BD4680BDC04680B582B000AF786094
:10122000034B7A681A60C046BD4602B080BDC04616
:10123000D800424280B582B000AF78600A00FB1C43
:101240001A70FB1C1B78002B06D0094B084A516909
:101250007A680A435A6106E0054B054A5269796883
:10126000C9430A405A61C046BD4602B080BDC0466F
:101270000010024080B582B000AF78600A00FB1C0D
:101280001A70FB1C1B78002B06D0094B084A916989
:101290007A680A439A6106E0054B054A92697968C3
:1012A000C9430A409A61C046BD4602B080BDC046EF
:1012B0000010024080B582B000AF78600A00FB1CCD
:1012C0001A70FB1C1B78002B06D0094B084AD16909
:1012D0007A680A43DA6106E0054B054AD269796803
:1012E000C9430A40DA61C046BD4602B080BDC0466F
:1012F0000010024080B500AF1A4B1A4A1268012153
:101300000A431A60174B174A526817490A405A6035
:10131000144B144A126815490A401A60114B114ABD
:10132000126813490A401A600E4B0E4A526811495E
:101330000A405A600B4B0B4AD26A0F218A43DA6289
:10134000084B084A126B0C490A401A63054B0022ED
:101350009A6000F015F8094B802212059A60C04689
:10136000BD4680BD001002400CC07FF8FFFFF6FEB6
:10137000FFFFFBFFFFFF80FFCCFC00FF00ED00E064
:1013800080B582B000AF00237B6000233B60354B0B
:10139000344A1268802149020A431A60314B1A68A4
:1013A00080239B0213403B607B6801337B603B687A
:1013B000002B04D17A68A023DB009A42EED1294B9E
:1013C0001A6880239B02134002D001233B6001E096
:1013D00000233B603B68012B3FD1234B12221A6054
:1013E000204B204A52685A601E4B1E4A52685A606F
:1013F0001C4B1C4A52688021C9000A435A60194B91
:10140000184A526819490A405A60164B154A5268E0
:10141000E82149030A435A60124B124A126880219C
:1014200049040A431A60C0460E4B1A6880239B0485
:101430001340F9D00B4B0B4A526803218A435A6080
:10144000084B084A526802210A435A60C046054BBD
:101450005B680C221340082BF9D1C046BD4602B090
:1014600080BDC0460010024000200240FFFFC0FFC8
:1014700080B582B000AF0200FB1D1A700949FB1D48
:101480001B785BB25B09FA1D127810001F22024024
:101490000120904002009B005A50C046BD4602B059
:1014A00080BDC04600E100E080B584B000AF0121FE
:1014B0000420FFF7FFFE01212020FFF7FBFE3B1D6C
:1014C00000221A813B1D00225A802B4B1A68FA23F6
:1014D0005901100003F05EF803005A1E3B1D5A60CC
:1014E000264B1A68244B1B681900100003F052F8B1
:1014F00003009BB2013B9AB23B1D1A803B1D204A60
:101500001900100002F032FB1B4B1B68642118000D
:1015100003F040F803005A1E3B1D5A603B1D194A58
:101520001900100002F022FB3B001E221A703B0043
:1015300002225A703B0000229A703B000122DA70AE
:101540003B00180002F0ACFA1E20FFF791FF3B00B1
:1015500037221A703B0007225A703B00FF229A7014
:101560003B00180002F09CFA3720FFF781FFC046CD
:10157000BD4604B080BDC046180000200000002019
:10158000000800400014004080B582B000AF802306
:101590005B0301211800FFF74DFE3B0001221A7189
:1015A0003B0000229A713B00862212021A603B0027
:1015B0000022DA713B0003225A713B00094A1900EC
:1015C000100001F085FA3B0002221A603A009023D5
:1015D000DB051100180001F07BFAC046BD4602B0E1
:1015E00080BDC0460010004880B592B000AF012118
:1015F0000120FFF71FFE80239B0201211800FFF747
:1016000019FE8023DB0201211800FFF713FE80235F
:101610005B0301211800FFF70DFE80235B01012110
:101620001800FFF727FE8023DB0101211800FFF7D8
:1016300021FE964B05220D21180001F021FB934B52
:1016400005220E21180001F01BFB904B05220F21F3
:10165000180001F015FB9023DB0505220521180079
:1016600001F00EFB9023DB0505220621180001F096
:1016700007FB9023DB0505220721180001F000FB82
:101680002C23FB1802221A712C23FB1800229A71BA
:101690002C23FB18E0221A602C23FB1803225A711A
:1016A0002C23FA189023DB051100180001F010FA22
:1016B0002C23FB18E02212021A602C23FB18734A19
:1016C0001900100001F004FA2C23FB1801221A71F2
:1016D0002C23FB1800229A712C23FB180222DA71AA
:1016E0002C23FB1802221A602C23FB1803225A71A8
:1016F0002C23FB18654A1900100001F0E9F92C238E
:10170000FB1800221A712C23FB1810221A602C23BC
:10171000FB1803225A712C23FA189023DB051100C1
:10172000180001F0D5F92C23FB1800221A712C2384
:10173000FB1801221A602C23FB180122DA712C23DA
:10174000FB1803225A712C23FB18514A1900100070
:1017500001F0BEF92C23FB1801221A712C23FB186F
:1017600080221A602C23FB180122DA712C23FB182B
:1017700003225A712C23FB18454A1900100001F06E
:10178000A7F93423FB1810229A813423FB18012275
:101790001A813423FB180222DA803423FB1800223A
:1017A0001A803423FB180022DA813423FB188222AA
:1017B00052005A803423FB18802292005A8134232D
:1017C000FB18F02212019A803423FB18314A1900C9
:1017D000100002F00BF83423FB18E022D2009A80AC
:1017E0003423FB182C4A1900100001F0FFFF3B00C6
:1017F00004229A813B0010229A603B0000229A62E8
:10180000264A3B005A603B008022D200DA613B004E
:1018100080225A613B0000221A623B00204A1A6073
:101820003B00802252009A613B0000221A613B007B
:10183000802252015A623B001A4A1900100001F03E
:10184000E9FD3B008022D200DA613B0004229A814C
:10185000154A3B005A603B0000229A603B00002280
:101860001A623B00114A1900100001F0D3FD094B28
:101870000121180002F07CF8074B0121180002F04A
:1018800077F8C046BD4612B080BDC046000400488F
:10189000000C004800300140003800408C09002056
:1018A0000C30014030000240800900201C00024042
:1018B00080B586B000AF80231B0301211800FFF71D
:1018C000B9FC8023DB0201211800FFF7B3FC0121E2
:1018D0000120FFF7CFFC1023FB1800221A71102300
:1018E000FB1801229A711023FB1803221A6010239F
:1018F000FB1803225A711023FB18284A1900100004
:1019000001F0E6F81023FB180C221A601023FB18D4
:10191000234A1900100001F0DBF80021022002F038
:1019200007FC0321012002F003FC0823FB1800221E
:101930001A600823FB1800221A710823FB180822DA
:101940005A710823FB1801229A710823FB1818000A
:1019500001F030FE0823FB1803221A600823FB184D
:10196000180001F027FE3B1D06221A703B1D0022C5
:101970005A703B1DFF229A703B1D0122DA703B1DFD
:10198000180002F08DF83B1D09221A703B1D18004B
:1019900002F086F8C046BD4606B080BD000800488B
:1019A0000004004890B583B000AFBB1D00221A8030
:1019B00073E1C04B1B889BB2DBB20F221340DAB23B
:1019C000BD4B1A70BC4B1B78002B00D01CE1BB4BED
:1019D0001B689AB2BA4B1A80B94B1B889BB2302253
:1019E00013409AB2B74B1A80B54B1B889AB2C023EA
:1019F0009B0113409AB2B24B1A80B04B1B689BB24A
:101A00001A00B14B1A40140080239B0163401C0054
:101A1000202363401C00A94BA2B2AC490A4392B2F6
:101A20001A60A44B1B889BB21A001023134047D1A5
:101A3000A24BA24A126892B21100A54A0A401A604B
:101A4000FFF7FAFA9D4B1B689BB21A009E4B1A4097
:101A500014009B4B1B889AB280235B0113409BB2FE
:101A6000002B03D080235B0163401C00944B1B8838
:101A70009AB280239B0113409BB2002B03D080239A
:101A80009B0163401C008F4B1B889BB210221340AC
:101A90009BB2002B02D0102363401C00894B1B8893
:101AA0009BB2202213409BB2002B02D02023634024
:101AB0001C00824BA2B285490A4392B21A60F6E03A
:101AC0007E4B1B689AB2BB1D1A80BB1D1B889BB244
:101AD0001A0080231B01134047D0784B774A1268C5
:101AE00092B211007B4A0A401A60FFF733FA734B37
:101AF0001B689BB21A00744B1A401400704B1B8871
:101B00009AB280235B0113409BB2002B03D0802349
:101B10005B0163401C006A4B1B889AB280239B01C7
:101B200013409BB2002B03D080239B0163401C0019
:101B3000644B1B889BB2102213409BB2002B02D037
:101B4000102363401C005F4B1B889BB22022134074
:101B50009BB2002B02D0202363401C00574BA2B243
:101B60005A490A4392B21A60A1E0BB1D1B889BB27E
:101B70001BB2002B00DB90E0504B504A126892B22F
:101B80001100544A0A401A60FFF79EFA4B4B1B683B
:101B90009BB21A004C4B1A401400494B1B889AB256
:101BA00080235B0113409BB2002B03D080235B0199
:101BB00063401C00424B1B889AB280239B01134058
:101BC0009BB2002B03D080239B0163401C003D4B44
:101BD0001B889BB2102213409BB2002B02D0102313
:101BE00063401C00374B1B889BB2202213409BB2E2
:101BF000002B02D0202363401C00304BA2B233499B
:101C00000A4392B21A6052E02B4B1B789B002B4A7E
:101C1000944663441B689AB2BB1D1A80BB1D1B8887
:101C20009BB21BB2002B18DA234B1B789B00234A74
:101C300094466344204A1278920020498C466244BC
:101C4000126892B21100234A0A401A601A4B1B789C
:101C50005A1E214B9200D3589847BB1D1B889BB23C
:101C60001A008023134018D0134B1B789B00134A93
:101C700094466344104A1278920010498C4662449C
:101C8000126892B21100124A0A401A600A4B1B787D
:101C90005A1E124B9200D3589847114B1B689AB2A8
:101CA000044B111C198013B2002B00DA81E6BD46EB
:101CB00003B090BD646C00208C690020005C004083
:101CC000AE0B0020B00B0020BFBF00008080FFFFE4
:101CD0000F8F00008F0F0000E0000020C4000020E4
:101CE000445C004080B582B000AF00237B6050E0D0
:101CF0002E4B2F4A1A602F4B1B889BB2DBB20F2250
:101D00001340DAB22C4B1A702B4B1B789B002B4ADA
:101D1000944663441B689BB27B607A6880231B02F5
:101D2000134019D0244B1B789B00244A94466344EB
:101D3000214A1278920021498C466244126892B27C
:101D400011001F4A0A401A601B4B1B785A1E1D4B7C
:101D50009200D35898471CE07B688022134018D02B
:101D6000154B1B789B00154A94466344124A12781F
:101D7000920012498C466244126892B21100124AD3
:101D80000A401A600C4B1B785A1E104B9200D35815
:101D90009847064B1B689AB2064B111C198013B268
:101DA000002BA5DBC046BD4602B080BD445C0040B0
:101DB000FF7F0000646C00208C690020005C004004
:101DC0008F0F0000E00000200F8F0000C4000020F3
:101DD00080B582B000AF0200BB1D1A80044BBA1D53
:101DE000128804490A401A60C046BD4602B080BD50
:101DF000505C0040F8FF000080B582B000AF0200E8
:101E0000FB1D1A70FB1D1B789B00044A944663441B
:101E10001B689BB21800BD4602B080BD005C00404C
:101E200080B582B000AF0200FB1D1A703B1D0A1C7A
:101E30001A80FB1D1B789B000C4A94466344FA1DD4
:101E40001278920009498C466244126812B208491D
:101E50000A4011B23A1D0020125E0A4312B292B239
:101E60001A60C046BD4602B080BDC046005C00405E
:101E70008F89FFFF90B583B000AF0200FB1D1A7081
:101E80003B1D0A1C1A80FB1D1B789B00144A9446BC
:101E900063441B689BB2134A13409CB23B1D1B88D2
:101EA000102213409BB2002B02D0102363409CB23F
:101EB0003B1D1B88202213409BB2002B02D0202305
:101EC00063409CB2FB1D1B789B00054A944663440B
:101ED000054A224392B21A60C046BD4603B090BD87
:101EE000005C0040BF8FFFFF8080FFFF90B583B094
:101EF00000AF0200FB1D1A703B1D0A1C1A80FB1D5F
:101F00001B789B00164A944663441B689BB2154A93
:101F100013409CB23B1D1A8880235B0113409BB287
:101F2000002B03D080235B0163409CB23B1D1A88C9
:101F300080239B0113409BB2002B03D080239B0185
:101F400063409CB2FB1D1B789B00054A944663448A
:101F5000054A224392B21A60C046BD4603B090BD06
:101F6000005C00408FBFFFFF8080FFFF90B583B013
:101F700000AF0200FB1D1A70FB1D1B789B000F4A6F
:101F8000944663441B689BB20D4A13409CB2802365
:101F90005B0163409CB280239B0163409CB2FB1DAC
:101FA0001B789B00054A94466344064A224392B23A
:101FB0001A60C046BD4603B090BDC046005C0040FC
:101FC0008FBFFFFF8080FFFF80B582B000AF0200AF
:101FD000FB1D1A70FB1D1B789B000B4A9446634443
:101FE000FA1D1278920008498C466244126812B2B7
:101FF00006490A4012B206490A4312B292B21A6066
:10200000C046BD4602B080BD005C00400F0E00001F
:102010008080FFFF80B582B000AF0200FB1D1A7008
:10202000FB1D1B789B000A4A94466344FA1D1278F4
:10203000920007498C466244126892B21100054A28
:102040000A4005490A431A60C046BD4602B080BD39
:10205000005C00400F0F000080C0000080B582B01F
:1020600000AF0200FB1D1A70FB1D1B789B00114A7C
:10207000944663441B689BB21A008023DB01134023
:1020800013D0FB1D1B789B000A4A94466344FA1D3B
:102090001278920007498C466244126892B211008D
:1020A000054A0A4005490A431A60C046BD4602B0C7
:1020B00080BDC046005C00400F0F000080C00000E3
:1020C00080B582B000AF0200FB1D1A70FB1D1B78AB
:1020D0009B00104A944663441B689BB21A0040233D
:1020E000134013D0FB1D1B789B000A4A944663449F
:1020F000FA1D1278920007498C466244126892B227
:102100001100054A0A4005490A431A60C046BD4607
:1021100002B080BD005C00400F0F0000C0800000D6
:1021200080B582B000AF0200FB1D1A703B1D0A1C77
:102130001A800B4B1B689BB21A00FB1D1B78DB003F
:10214000D318084A944663445B003A1D128852082B
:1021500092B252001A60C046BD4602B080BDC04671
:10216000505C00400030002080B582B000AF02001B
:10217000FB1D1A703B1D0A1C1A800B4B1B689BB27F
:102180001A00FB1D1B78DB00D318084A94466344F1
:102190005B003A1D1288520892B252001A60C04683
:1021A000BD4602B080BDC046505C004004300020F7
:1021B00080B582B000AF0200FB1D1A70084B1B688F
:1021C0009BB21A00FB1D1B78DB00D318054A94460E
:1021D00063445B001B689BB21800BD4602B080BD23
:1021E000505C00400030002080B582B000AF02009B
:1021F000FB1D1A70084B1B689BB21A00FB1D1B7855
:10220000DB00D318054A944663445B001B689BB20D
:102210001800BD4602B080BD505C00400430002074
:1022200080B582B000AF0200FB1D1A703B1D0A1C76
:102230001A80094B1B689BB21A00FB1D1B78DB0040
:10224000D318064A944663445B003A1D12881A600C
:10225000C046BD4602B080BD505C00400230002048
:1022600080B584B000AF0200FB1D1A703B1D0A1C34
:102270001A80254B1B689BB21A00FB1D1B78DB00E4
:10228000D318224A944663445B00BB603B1D1B8805
:102290003E2B1CD90E23FB183A1D128852091A80B6
:1022A0003B1D1B881F22134006D10E23FB181A88E2
:1022B0000E23FB18013A1A800E23FB181B889B0281
:1022C0008022120213431A00BB681A6018E00E2322
:1022D000FB183A1D128852081A803B1D1B880122E8
:1022E000134006D00E23FB181A880E23FB18013268
:1022F0001A800E23FB181B889B021A00BB681A6009
:10230000C046BD4604B080BD505C00400630002091
:1023100090B583B000AF040008001100FB1D221C23
:102320001A703B1D021C1A80BB1C0A1C1A80144B1D
:102330001B689BB21A00FB1D1B78DB00D318114AE7
:10234000944663445B003A1D1288520892B25200D0
:102350001A600B4B1B689BB21A00FB1D1B78DB003D
:10236000D318094A944663445B00BA1C1288520889
:1023700092B252001A60C046BD4603B090BDC0463E
:10238000505C0040003000200430002090B587B041
:1023900000AF040008001100FB1D221C1A70BB1DB9
:1023A000021C1A703B1D0A1C1A80BB1D1B78012BD6
:1023B00047D15F4B1B689BB21A00FB1D1B78DB00EB
:1023C000D3185C4A944663445B003B613B1D1B8809
:1023D0003E2B1CD91623FB183A1D128852091A806D
:1023E0003B1D1B881F22134006D11623FB181A8899
:1023F0001623FB18013A1A801623FB181B889B0230
:102400008022120213431A003B691A602CE0162343
:10241000FB183A1D128852081A803B1D1B880122A6
:10242000134006D01623FB181A881623FB18013216
:102430001A801623FB181B889B021A003B691A603E
:1024400012E0BB1D1B78022B0ED1394B1B689BB2CF
:102450001A00FB1D1B78DB00D318364A94466344F0
:102460005B003A1D12881A60BB1D1B78012B47D1F7
:102470002F4B1B689BB21A00FB1D1B78DB00D31887
:102480002D4A944663445B00FB603B1D1B883E2B3A
:102490001CD91423FB183A1D128852091A803B1DBF
:1024A0001B881F22134006D11423FB181A881423FB
:1024B000FB18013A1A801423FB181B889B02802208
:1024C000120213431A00FB681A602CE01423FB1855
:1024D0003A1D128852081A803B1D1B8801221340A6
:1024E00006D01423FB181A881423FB1801321A8013
:1024F0001423FB181B889B021A00FB681A6012E069
:10250000BB1D1B78022B0ED1094B1B689BB21A0016
:10251000FB1D1B78DB00D318074A944663445B001D
:102520003A1D12881A60C046BD4607B090BDC0462D
:10253000505C0040023000200630002080B584B09E
:1025400000AF0200BB1D1A800F23FB18BA1D1288B2
:102550001A70BB1D1B881B0A9BB21AB20F23FB18F3
:102560001B781B021BB213431AB20C23FB181A80F0
:102570000C23FB181B881800BD4604B080BDC04664
:1025800080B582B000AF01210120FEF773FE8023E9
:102590009B0201211800FEF74DFE80239B030121C1
:1025A0001800FEF747FE3B00C02252011A603B00B4
:1025B00003225A713B0002221A713B0000229A71D9
:1025C0003B000022DA713A009023DB05110018006D
:1025D00000F07EFA3B00FF2212021A603B00032249
:1025E0005A713B0001221A713B00134A1900100076
:1025F00000F06EFA9023DB050E220B21180000F08C
:102600003FFB9023DB050E220C21180000F038FB65
:10261000122001F0D3F8094B12221A60074B08224E
:102620005A71064B01229A71044B180000F0C2FF48
:10263000BD4602B080BDC046001000486C48002076
:1026400080B500AF0020FEF7E7FD80231B040121C9
:102650001800FEF72FFEC046BD4680BD80B582B093
:1026600000AF094B7B607B689B7A002B03D0074B44
:1026700005221A6002E0054B01221A60FEF73AFEBD
:10268000C046BD4602B080BD906900205C050020B8
:1026900080B582B000AFA023DB00180001F0EEF996
:1026A0003B1D14221A703B1D02225A703B1D002252
:1026B0009A703B1D0122DA703B1D180001F0F0F901
:1026C0003B1D13221A703B1D01229A703B1D2A22CA
:1026D0001A703B1D01225A703B1D180001F0E0F9F1
:1026E000C046BD4602B080BD80B582B000AF0200DA
:1026F000FB1D1A70C046BD4602B080BD80B584B0D7
:1027000000AF104B1B68FB600F4B1B68BB600F4B8F
:102710001B687B60FA687B68D318FB60FB68002B42
:102720000BD00B49FB680822180000F015F8094986
:10273000BB680422180000F00FF8C046BD4604B084
:1027400080BDC046ACF7FF1FB0F7FF1FB4F7FF1FF7
:102750001E0000202E00002080B586B000AFF8607B
:10276000B960FB1D1A701723FB1800221A7017237B
:10277000FB1800221A7031E0FB681B0F092B0DD8E3
:102780001723FB181B785B001A00BB689B18FA68BC
:10279000120FD2B23032D2B21A700CE01723FB18EB
:1027A0001B785B001A00BB689B18FA68120FD2B244
:1027B0003732D2B21A70FB681B01FB601723FB187B
:1027C0001B785B000133BA68D31800221A701723F4
:1027D000FB181A781723FB1801321A701723FA18FE
:1027E000FB1D12781B789A42C6D3C046BD4606B080
:1027F00080BDC04680B500AFFFF780FF064B1B6869
:1028000000229A7200F08EFA01F020F9034B0022A8
:102810001A60C046BD4680BDB06900205C0500203E
:1028200080B500AF314B1B6800229A722F4B1B689A
:102830002F4AD2795A720020FFF7CAFA80239B00F0
:1028400019000020FFF7ECFA20210020FFF712FB0F
:1028500010210020FFF788FC264B2C229B5C9BB2AA
:1028600019000020FFF7FCFC50210020FFF758FC66
:102870000020FFF7A9FB0020FFF778FB8023DB0097
:1028800019000120FFF7CCFA88235B001A00902181
:102890000120FFF73DFD184B1B789BB21A00022167
:1028A0000120FFF773FD0120FFF7D8FB0120FFF7A0
:1028B00007FC0120FFF7AEFB30210120FFF7DAFA19
:1028C00000210120FFF712FB0020FFF74FFB002043
:1028D000FEF75CFC094B01221A60094B00221A80AA
:1028E000084B00221A80C046BD4680BDB06900205A
:1028F000DC4900083C000020960900205C0500200F
:10290000626C0020606C002080B582B000AF064B86
:102910007B607B689B7A002B02D0044B05221A60F7
:10292000C046BD4602B080BD906900205C05002015
:1029300080B500AF024B04221A60C046BD4680BD80
:102940005C05002080B500AFC046BD4680BDC046D6
:1029500080B500AFC046BD4680BDC04680B584B0DE
:1029600000AF0200FB1D1A700023FB60FB1D1B78EB
:10297000812B03D0FB1D1B78012B0ED1094BFB6073
:10298000094B1B68FA689A61074B1B6800225A8240
:10299000FB6800209847002300E002231800BD4692
:1029A00004B080BD992A0008B069002080B582B0CB
:1029B00000AF0200FB1D1A7002231800BD4602B0D2
:1029C00080BDC04680B582B000AF0200BB1D1A803A
:1029D000054ABB1D1B8811001800FDF7FBFE030014
:1029E0001800BD4602B080BD9000002080B582B0C6
:1029F00000AF0200BB1D1A80054ABB1D1B881100D9
:102A00001800FDF7E7FE03001800BD4602B080BDC8
:102A10009800002080B584B000AF0200BB1D1A8072
:102A20000E4B1A680F23FB18D2781A700F23FB186D
:102A30001B78042B01D900230CE00F23FB181B7813
:102A4000DA00074BD218BB1D1B8811001800FDF7D8
:102A5000C1FE03001800BD4604B080BDB06900206F
:102A6000A000002080B582B000AF0200FB1D1A70EC
:102A7000BB1D0A1C1A70BB1D1B78012B01D9022338
:102A800006E0FB1D1B78012B01D9022300E0002387
:102A90001800BD4602B080BD80B582B000AF020014
:102AA000BB1D1A80BB1D1B88002B07D1064B1A6863
:102AB000054B1B68DB881382002300E0034B1800E2
:102AC000BD4602B080BDC046B06900205805002058
:102AD00080B586B000AF7860396000237B61002349
:102AE0003B610023FB6000237B617CE001227B696A
:102AF0009A4013003B613B681B683A691340FB60D6
:102B0000FA683B699A426BD13B681B79012B03D071
:102B10003B681B79022B34D17B689B687A69520031
:102B2000032191400A00D2431A407B689A607B6877
:102B30009A683B685B7919007B695B0099400B00E0
:102B40001A437B689A607B689B889BB27A6992B2D1
:102B5000110001228A4092B2D24392B213409AB23B
:102B60007B689A807B689B889AB23B689B79190046
:102B70007B699BB299400B009BB213439AB27B686E
:102B80009A807B681B687A695200032191400A0091
:102B9000D2431A407B681A607B681A683B681B79CD
:102BA00019007B695B0099400B001A437B681A602F
:102BB0007B68DB687A6992B25200032191400A0077
:102BC000D2431A407B68DA607B68DA683B68DB795D
:102BD00019007B695B0099400B001A437B68DA603F
:102BE0007B6901337B617B690F2B00D87EE7C04690
:102BF000BD4606B080BDC04680B584B000AF7860E9
:102C00000A00BB1C1A800F23FB1800221A707B6875
:102C10001B8A9BB2BA1C128813409BB2002B04D0B3
:102C20000F23FB1801221A7003E00F23FB18002268
:102C30001A700F23FB181B781800BD4604B080BD26
:102C400080B582B000AF78600A00BB1C1A80BB1C44
:102C50001A887B689A61C046BD4602B080BDC046F6
:102C600080B582B000AF78600A00BB1C1A807B6818
:102C7000BA1C12881A85C046BD4602B080BDC04647
:102C800080B584B000AF786008001100BB1C021C46
:102C90001A807B1C0A1C1A700023FB600023BB6097
:102CA0007B1C1A78BB1C1B8807210B409B009A4099
:102CB0001300FB60BB1C1B88DB089BB21800BB1C0D
:102CC0001B88DB089BB21A007B6808329200D3583D
:102CD000BA1C128807210A4092000F2191400A0075
:102CE000D2431A4011007B68020008329200D15092
:102CF000BB1C1B88DB089BB21A007B680832920061
:102D0000D258FB681343BB60BB1C1B88DB089BB21B
:102D10001A007B6808329200B968D150C046BD469F
:102D200004B080BD80B582B000AF0120FFF7DCFCAD
:102D3000BB1D01221A800D4BBA1D12881A600C4B64
:102D400000221A80094B0A4A12881A60094B002295
:102D50001A60074BE02252011A80044B044A128881
:102D60001A6000231800BD4602B080BD405C0040E0
:102D7000B4690020445C004080B584B000AF0023FB
:102D8000FB600023BB6000233B605A4B1A68BB1DED
:102D90001A800023FB600EE0FB689B00564A9446B5
:102DA00063441B689BB21900544BFA689200D150DF
:102DB000FB680133FB60FB68072BEDD9BB1DBA1D17
:102DC00012888021C9000A431A804A4BBA1D128812
:102DD0001A60BB1DBA1D128801210A431A80454B97
:102DE000BA1D12881A60BB1DBA1D128801218A43C0
:102DF0001A80404BBA1D12881A60C046404B1B68AF
:102E00009BB21A008023DB001340F7D03C4B3D4AB5
:102E10001A600023FB600DE0FB689B00364A944675
:102E20006344364AF96889008A5892B21A60FB688E
:102E30000133FB60FB68072BEED9BB1DBA1D12885E
:102E400008210A431A802B4BBA1D12881A60294B9D
:102E50001A68BB1D1A80BB1DBA1D128804210A43C3
:102E60001A80244BBA1D12881A60274B1B683B60DE
:102E7000254B1B68BB60BB6803229343BB60BB68E8
:102E800001221343BB60204BBA681A601F4B1F4AD4
:102E9000126904210A431A61194B1B689BB21A007C
:102EA00080235B01134007D130BF184B174A1269CA
:102EB00004218A431A6119E0114B154A1A600D4B1F
:102EC0001A68BB1D1A80BB1DBA1D128808218A43CF
:102ED0001A80084BBA1D12881A600B4B3A681A60A8
:102EE0000A4B0A4A126904218A431A61C046BD4648
:102EF00004B080BD405C0040005C0040646900207C
:102F0000445C0040FFFB00000070004000ED00E06A
:102F1000FFEF000080B582B000AF0C4B1A68BB1DFC
:102F20001A80BB1DBA1D128804218A431A80074BE0
:102F3000BA1D12881A60FFF791FB044BBF221202E0
:102F40001A60C046BD4602B080BDC046405C00402D
:102F500080B584B000AF0200FB1D1A70FB1D1B780A
:102F6000072B03D0424BFA1D12781A70404B1B7886
:102F7000DBB2052B00D970E09A003E4BD3181B68DA
:102F80009F463D4B1B68002B05D1FFF7C3FF384B15
:102F900006221A7068E0364B05221A7064E0FFF7CB
:102FA000B9FF334B04221A70334B01221A605BE0E5
:102FB0002F4B02225A702E4B03221A7054E02C4BD6
:102FC0005B78DBB2013BDAB2294B5A70284B5B7855
:102FD000DBB2002B45D1264B04221A7041E0274B6F
:102FE0001A680E23FB181A800E23FB180E22BA183B
:102FF000128810210A431A80204B0E22BA18128818
:103000001A601B4B05221A70194B0A225A702BE0CA
:10301000174B5B78DBB2013BDAB2154B5A70144B9D
:103020005B78DBB2002B1ED1144B1A680E23FB1801
:103030001A800E23FB180E22BA18128810218A4318
:103040001A800E4B0E22BA1812881A60084B0622FC
:103050001A70094B00221A6005E0054B06221A700F
:1030600002E0C04600E0C046C046BD4604B080BD98
:1030700060690020944A000860050020405C004020
:1030800080B500AF094B0A4A1A60084B1B68022240
:103090001A72084B084A1A60084B094A1A60054B15
:1030A0001B681B689847C046BD4680BDB0690020BC
:1030B00090690020886900203C000020AC69002055
:1030C0006C00002080B582B000AF0200FB1D1A70BA
:1030D0000949FB1D1B785BB25B09FA1D12781000D1
:1030E0001F2202400120904002009B005A50C0461F
:1030F000BD4602B080BDC04600E100E080B582B0B0
:1031000000AF02003960FB1D1A70FB1D1B787F2B7E
:103110000DD91049FB1D1B781A000F231340043BE7
:103120003A68D2B21201D2B2CB181A760DE00A492F
:10313000FB1D00229A563B68DBB21B01D8B2C023AC
:103140009B008A18D318021C1A70C046BD4602B0F4
:1031500080BDC04600ED00E000E100E080B582B037
:1031600000AF78607B680E4A934201D9012312E0D8
:103170000C4B7A681202120A013A5A6001235B4230
:103180000F211800FFF7BAFF064B00229A60054B8B
:1031900007221A6000231800BD4602B080BDC04659
:1031A000FFFFFF0010E000E080B582B000AF786064
:1031B0007B68FA2292005A43054B1A60C046044BC2
:1031C0001B68002BFBD1C046BD4602B080BDC04687
:1031D000506C002080B582B000AF3B1D0C221A70ED
:1031E0003B1D0122DA703B1D00225A703B1D052257
:1031F0009A703B1D180000F053FC3B1D0D221A7005
:103200003B1D0122DA703B1D00225A703B1D042237
:103210009A703B1D180000F043FC3B1D1E221A70E3
:103220003B1D01225A703B1D00229A703B1D01225A
:10323000DA703B1D180000F033FC0D20FFF742FF51
:103240000C20FFF73FFF0E4B01220121180000F078
:10325000AFFB0B4B01220221180000F0A9FB094B28
:1032600001220221180000F041F9074B012202213E
:10327000180000F03BF9C046BD4602B080BDC04614
:1032800000300140300002401C00024080B500AF19
:10329000044BFF221A80034BFF225A80C046BD46D2
:1032A00080BDC0468C09002080B582B000AF0023ED
:1032B0007B60444B00221A80434B00221A70434B20
:1032C00000221A70424B802292001A80414B002249
:1032D0001A60414B00221A8000237B6007E03F4BBD
:1032E0007A6852000021D1527B6801337B60384BF1
:1032F0001B881A007B689A42F1DC394B20221A7035
:10330000374B1B78DB18DAB2364B1A70364B00227B
:103310001A70364BE0221A70354B20221A70354B4A
:1033200000221A70344B00221A70344B1B68344947
:10333000180001F02FF903001800FFF70FFF6420B9
:10334000FFF732FF00237B6007E02E4B7A685200C4
:103350002D49D1527B6801337B607B683F2BF4DDC4
:1033600000237B600CE07B689BB2FA22520053433F
:1033700099B2264B7A685200D1527B6801337B6048
:103380007B680F2BEFDDFFF781FFFEF7FDF8FFF7FE
:10339000F7F8FFF755F9FFF77BF9FFF771FEFEF736
:1033A00023F91B4B02211800FFF75AFCFEF77CF8AB
:1033B000FA239B001800FFF7F7FEFFF70BFFFEF75D
:1033C00077FAFEE798090020270A0020220A002049
:1033D00094090020780500201C0A00207C050020AC
:1033E000280A0020960900201E0A0020240A002036
:1033F000290A0020250A0020230A002000000020BE
:1034000040420F002C0B0020983A00009C0900203D
:103410000004004880B584B000AF786039600023B4
:10342000FB607B681B68FB60FB68184A1340FB600D
:103430003B689A683B681B6A1A433B681B691A43DE
:103440003B685B691A433B689B691A433B68DB69CD
:103450001A433B685B6A1A433B689B6A1343FA68EA
:103460001343FB607B68FA681A603B689B891A000B
:103470007B685A603B681A687B689A603B685A6848
:103480007B68DA60C046BD4604B080BD0F80FFFF98
:1034900080B582B000AF78600A00FB1C1A70FB1C7C
:1034A0001B78002B06D07B681B6801221A437B68BF
:1034B0001A6005E07B681B68034A1A407B681A6043
:1034C000C046BD4602B080BDFEFF000080B582B0A0
:1034D00000AF78600A00BB1C1A80BB1C1A887B688E
:1034E0005A60C046BD4602B080BDC04680B584B0BB
:1034F00000AFF860B960FB1D1A70FB1D1B78002B34
:1035000006D0FB681A68BB681A43FB681A6006E0BD
:10351000FB681B68BA68D2431A40FB681A60C04651
:10352000BD4604B080BDC04680B584B000AF7860B1
:103530000F23FB1800221A700023BB607A688023D7
:103540005B05134003D00D4B1B68BB6002E00C4BC6
:103550001B68BB60BB687A68134004D00F23FB185C
:1035600001221A7003E00F23FB1800221A700F23A8
:10357000FB181B781800BD4604B080BD0004024053
:103580000000024080B582B000AF78607A68802386
:103590005B05134003D0054B7A685A6002E0044B88
:1035A0007A685A60C046BD4602B080BD0004024041
:1035B0000000024080B584B000AF78600023FB605B
:1035C000794BFB607B689B79002B00D1CFE07B6857
:1035D0001B685B09754A944663445B011A007B686B
:1035E0001B685B0971498C4663445B0119687B6801
:1035F0001B681F200340012098400300DB430B4061
:1036000013607B681B685B095B01694A94466344ED
:103610001A007B681B685B095B0165498C46634443
:1036200019687B681B681F20034001209840030035
:10363000DB430B4013607B681B791A007B681B68B7
:103640005B095B01D318FA68D318FB60FB68FA6862
:1036500011687A6812681F20024001209040020021
:103660000A431A60504BFB607B681B685B095B0177
:10367000504A944663441A007B681B685B095B01EF
:103680004C498C46634419687B681B681F200340C3
:10369000012098400300DB430B4013607B681B68EC
:1036A0005B095B01444A944663441A007B681B68CB
:1036B0005B095B0140498C46634419687B681B6861
:1036C0001F200340012098400300DB430B401360A0
:1036D0007B685B79102B32D17B681B685B095B01CF
:1036E000344A944663441A007B681B685B095B019B
:1036F00030498C46634419687B681B681F2003406F
:103700000120984003000B4313607B681B685B0932
:103710005B01294A944663441A007B681B685B0975
:103720005B0125498C46634419687B681B681F2030
:1037300003400120984003000B4313602FE07B6897
:103740005B791A007B681B685B095B01D318FA6818
:10375000D318FB60FB68FA6811687A6812681F204A
:1037600002400120904002000A431A6017E07B6883
:103770001B791A007B681B685B095B01D318FA6828
:10378000D318FB60FB68FA6811687A6812681F201A
:103790000240012090400200D2430A401A60C04615
:1037A000BD4604B080BDC0460004014020080002B0
:1037B00004040140080401400C04014080B582B0BB
:1037C00000AF78607B685B095B01074A94466344FD
:1037D0007A681F210A40012191400A001A60C04600
:1037E000BD4602B080BDC0461404014080B584B01F
:1037F00000AF786039600E23FB1800221A803B6806
:103800005A8882235B009A424FD10E23FB187A68B4
:1038100012881A800E23FB180E22BA181188C122B2
:1038200092010A401A803B681A883B685B88134300
:103830009AB23B68D9883B681B890B4399B23B68B5
:1038400058893B689B89034398B23B68DB890343F3
:103850009BB20B439BB2134399B20E23FB180E226B
:10386000BA1812880A431A807B680E22BA18128886
:103870001A800E23FB187A6892881A800E23FB1890
:103880000E22BA18128838490A401A803B68998873
:103890000E23FB180E22BA1812880A431A807B687E
:1038A0000E22BA1812889A804EE00E23FB187A680E
:1038B00092881A800E23FB180E22BA1812882A4901
:1038C0000A401A803B6899880E23FB180E22BA180A
:1038D00012880A431A807B680E22BA1812889A80CE
:1038E0000E23FB187A6812881A800E23FB180E220A
:1038F000BA181188C12292010A401A803B681A88BE
:103900003B685B8813439AB23B68D9883B681B8944
:103910000B4399B23B6858893B689B89034398B233
:103920003B68DB8903439BB20B439BB2134399B2C1
:103930000E23FB180E22BA1812880A431A807B68DD
:103940000E22BA1812881A807B689B8B9BB2074A9A
:1039500013409AB27B689A833B681A8A7B681A8202
:10396000C046BD4604B080BDFFF0FFFFFFF7FFFF7C
:1039700080B582B000AF78600A00FB1C1A70FB1C97
:103980001B78002B08D07B681B889BB24022134316
:103990009AB27B681A8007E07B681B889BB2402242
:1039A00093439AB27B681A80C046BD4602B080BD80
:1039B00080B582B000AF786008001100BB1C021C0B
:1039C0001A807B1C0A1C1A707B1C1B78002B09D0E8
:1039D0007B689B889AB2BB1C1B8813439AB27B6896
:1039E0009A800AE07B689B889BB2BA1C1288D243FB
:1039F00092B213409AB27B689A80C046BD4602B02C
:103A000080BDC04680B584B000AF78600A00BB1CA2
:103A10001A800F23FB1800221A707B681B899BB247
:103A2000BA1C128813409BB2002B04D00F23FB1842
:103A300001221A7003E00F23FB1800221A700F23D3
:103A4000FB181B781800BD4604B080BD80B500AFE0
:103A5000064B00221A60064B064A1A80064B044A9F
:103A600012881A6000231800BD4680BD445C0040E7
:103A7000B469002000BFFFFF405C004080B582B009
:103A800000AF7860044B7A6804490A43DA60C046A4
:103A9000BD4602B080BDC04600ED00E00000FA0562
:103AA00080B586B000AF786000237B6100233B6166
:103AB0000F23FB607B68DB78002B3ED0294BDB6853
:103AC000DA43E023DB0013401B0A7B617B6904229D
:103AD000D31A3B61FA687B69DA401300FB607B68AC
:103AE0005B781A003B699A4013007B617B689B7886
:103AF0001A00FB6813407A6913437B617B691B01E1
:103B00007B61194A7B681B7818007B69D9B2C02396
:103B10009B001218D3180A1C1A7013497B681B7873
:103B20005B09DBB218007B681B781A001F23134067
:103B300001229A4083005A5010E00B497B681B78A1
:103B40005B09DBB218007B681B781A001F23134047
:103B500001229A40030020339B005A50C046BD46C4
:103B600006B080BD00ED00E000E100E080B584B06B
:103B700000AF786039600E23FB1800221A800E23F4
:103B8000FB187A6812881A807B68354A934210D0F5
:103B90007B68344A93420CD07A688023DB059A42D2
:103BA00007D07B68304A934203D07B682F4A934208
:103BB00010D10E23FB180E22BA18128870218A43E6
:103BC0001A803B6859880E23FB180E22BA181288F7
:103BD0000A431A807B68264A934214D07B68254AA0
:103BE000934210D00E23FB180E22BA1812882249D5
:103BF0000A401A803B6819890E23FB180E22BA1856
:103C000012880A431A807B680E22BA1812881A801A
:103C10003B685A687B68DA623B681A887B681A8559
:103C20007B680F4A93420FD07B680E4A93420BD0B9
:103C30007B68124A934207D07B68114A934203D0B3
:103C40007B68104A934204D13B689B7A9AB27B68A6
:103C50001A867B6801225A61C046BD4604B080BD09
:103C6000002C0140003401400004004000080040E6
:103C70000010004000140040FFFCFFFF0040014026
:103C8000004401400048014080B582B000AF786038
:103C900039607B683A685A62C046BD4602B080BD52
:103CA00080B582B000AF78600A00FB1C1A70FB1C64
:103CB0001B78002B08D07B681B889BB20122134322
:103CC0009AB27B681A8007E07B681B889BB201224E
:103CD00093439AB27B681A80C046BD4602B080BD4D
:103CE00080B582B000AF786008001100BB1C021CD8
:103CF0001A807B1C0A1C1A707B1C1B78002B07D0B7
:103D00007B68DA68BB1C1B881A437B68DA6008E0B2
:103D10007B68DB68BA1C1288D24392B21A407B6877
:103D2000DA60C046BD4602B080BDC04680B584B0F2
:103D300000AF78600A00BB1C1A800F23FB1800221A
:103D40001A700C23FB1800221A800A23FB18002289
:103D50001A807B681B699AB20C23FB18B91C09886E
:103D60000A401A807B68DB689AB20A23FB18B91CE8
:103D700009880A401A800C23FB181B88002B09D0E5
:103D80000A23FB181B88002B04D00F23FB180122E9
:103D90001A7003E00F23FB1800221A700F23FB1880
:103DA0001B781800BD4604B080BDC04680B582B007
:103DB00000AF78600A00BB1C1A80BB1C1B88DB4369
:103DC0009BB21A007B681A61C046BD4602B080BD36
:103DD00080B500AFC046BD4680BDC04680B500AFCF
:103DE000FEE7C04680B500AFFEE7C04680B500AF35
:103DF000FEE7C04680B500AFFEE7C04680B500AF25
:103E0000C046BD4680BDC04680B500AFC046BD4679
:103E100080BDC04680B500AFC046BD4680BDC0462F
:103E200080B500AF00F042FAC046BD4680BDC04636
:103E300080B500AFFDF756FFC046BD4680BDC04609
:103E400080B500AF1220FFF7B9FCC046BD4680BD6B
:103E500080B500AFFDF746FFC046BD4680BDC046F9
:103E600080B500AF80239B001800FFF75DFB0300C7
:103E7000012B16D1C0460F4B02211800FFF7C2FDDF
:103E8000031EF8D00C4B00211800FFF701FB0A4B72
:103E900004211800FFF71AFB80239B001800FFF78E
:103EA00071FB064B02211800FEF7DAFEC046BD4644
:103EB00080BDC04600300140300002400004004890
:103EC00080B500AF2020FFF72FFB0300012B0CD1A2
:103ED000074B00211800FFF7DBFA054B04211800FF
:103EE000FFF7F4FA2020FFF74DFBC046BD4680BD2A
:103EF0001C00024080B500AF434B01211800FFF7C2
:103F000015FF031E00D17BE03F4B01211800FFF796
:103F10004DFF3E4B00229B5E9BB201339BB21AB217
:103F20003A4B1A8080231B02394A19001000FEF711
:103F300087FE384B00221A701AE0374B1B781800A6
:103F4000344B1B781A00354B5200D35A344AD31ADB
:103F500099B2344B4200D1522F4B1B780133DAB265
:103F60002D4B1A702B4B1B780133DAB2294B1A7088
:103F7000284B1B78032BE0D92B4B1B8801339AB2BB
:103F8000294B1A80284B1A88284B1B889A4202D149
:103F9000254B00221A80204B1A78254B1B789A4219
:103FA00008D1244B1988244B1B789AB21D4B18005A
:103FB00000F008F9214B02211800FEF741FE802392
:103FC0009B00134A19001000FEF74AFEC0469023DA
:103FD000DB0510211800FEF70FFE031EF7D0184B6B
:103FE00001211800FFF754FA164B01211800FFF7C2
:103FF0004FFA80231B02064A19001000FEF730FE1C
:10400000C046BD4680BDC04600080040200A0020D2
:1040100000100048660500201E0A002080090020CC
:10402000FF7F00002C0A00201C0A002094090020B9
:10403000280A00207E09002096090020000400487C
:104040001C0002403000024080B500AF074B012148
:104050001800FFF76BFE031E04D0044B012118006B
:10406000FFF7A4FEC046BD4680BDC0460014004018
:1040700080B500AF054B1B68002B04D0034B1B68B9
:104080005A1E024B1A60C046BD4680BD506C0020CF
:1040900080B500AF8023DB0502211800FFF746FE44
:1040A0008023DB0504211800FFF740FE8023DB0599
:1040B00008211800FFF73AFE8023DB0510211800C5
:1040C000FFF734FE0300012B05D18023DB0510210F
:1040D0001800FFF76BFEC046BD4680BD80B500AF3F
:1040E000C046BD4680BDC046002103E00A4B5B5878
:1040F0004350043109480A4B42189A42F6D3094A00
:1041000002E0002342F8043B074B9A42F9D3FDF743
:10411000F1F8FFF7C9F87047B04A00080000002026
:104120003805002038050020686C0020FEE70000FC
:10413000B0B584B000AF0200FB1D1A70BB1D0A1C95
:104140001A700023FB60BB1D1B78032213409B00E9
:104150000F229A401300FB601949BB1D1B789B0876
:10416000DBB21800164ABB1D1B789B08DBB202337A
:104170009B009B58FA68D2431A40831C9B005A50FC
:104180000F48BB1D1B789B08DBB21D000C4ABB1DF2
:104190001B789B08DBB202339B009A58FB1D1978F1
:1041A000BB1D1B78032423409B0099400B001A433E
:1041B000AB1C9B001A50C046BD4604B0B0BDC04603
:1041C0000000014080B588B000AF786008001100A1
:1041D000BB1C021C1A803B000A1C1A803B001B8877
:1041E00001335B107B61BB1C1B88154A94466344FA
:1041F0005B00BB617B69FB611BE07B681B783B61FB
:104200007B6801337B607B681B781B021A003B696B
:104210001343FB60BB699A1CBA61FA6892B21A80B8
:10422000BB690233BB617B6801337B60FB69013B87
:10423000FB61FB69002BE0D1C046BD4608B080BDE4
:104240000030002080B586B000AF78600800110013
:10425000BB1C021C1A803B000A1C1A803B001B88F6
:1042600001335B10FB60BB1C1B880F4A9446634400
:104270005B003B61FB687B610EE07A68531C7B60EE
:104280003B69191D39611B689BB213807B68013340
:104290007B607B69013B7B617B69002BEDD1C04674
:1042A000BD4606B080BDC0460030002080B58AB053
:1042B00000AF00237B627B4B1B689AB27A4B1A805B
:1042C000794B1B889BB21A0080231B021340774A4C
:1042D0001288134001D0FDF765FB734B1B889BB21E
:1042E0001A008023DB001340704A1288134005D067
:1042F0006C4B6F4A1A606F4B5B6898476A4B1B8820
:104300009BB21A0080239B011340684A1288134015
:1043100002D0644B684A1A60634B1B889BB21A0038
:1043200080235B011340614A1288134005D05D4B26
:10433000624A1A600020FEF70BFE5B4B1B889BB2A3
:104340001A0080231B011340584A128813400DD0D5
:104350005B4B1B78DBB2002B02D0FEF70DFD02E0B9
:104360000220FEF7F5FD4F4B564A1A604E4B1B8854
:104370009BB21A0080239B0013404C4A12881340C2
:104380000BD0484B504A1A60504B1B78DBB20133BC
:10439000DAB24E4B1A7000F0A7F8434B1B889BB261
:1043A0001A0080235B001340404A1288134000D15A
:1043B00073E03C4B464A1A60464B1B681BB2002B0D
:1043C00065DA454B1B685A1C434B1A60424B1B680D
:1043D000032B5FD9414B1B689BB21A000823134083
:1043E00058D13E4B1B689BB21A003D4B1A6000230C
:1043F0007B620EE07B6A9B003A4A944663441B68EA
:104400009BB219003B1D7A6A9200D1507B6A01333E
:104410007B627B6A072BEDD9314B1B6801221A4363
:104420002F4B1A602D4A2E4B1B689BB213602C4BEE
:104430001B68012293431A00294B1A60274A284B14
:104440001B689BB21360C046164B1B689BB21A00D8
:104450008023DB001340F7D0124B154A1A6000236B
:104460007B620DE07B6A9B001E4A944663443A1DC2
:10447000796A89008A5892B21A607B6A01337B623A
:104480007B6A072BEED9144B00221A6002E0124B14
:1044900000221A600720FEF75BFDC046BD460AB049
:1044A00080BDC046445C0040646C0020B4690020BC
:1044B000FFFB00003C000020FFDF0000FFEF0000DA
:1044C000C0000020FFF70000FFFD00006C05002089
:1044D000FFFE0000485C004070050020405C00408A
:1044E00074050020005C004080B500AF254B002221
:1044F00001211800FFF7F4FB224B00211800FFF701
:10450000CFFB80239B00204A19001000FEF798FB88
:104510000120FDF771FC03001A00402313400AD06C
:104520000120FDF745FE03001A00184B1A80184BB6
:1045300000221A7006E00120FDF756FE03001A0063
:10454000124B1A80124B00221A7080239B000E4AD5
:1045500019001000FEF784FB0120FDF75BFD094BFD
:1045600078211800FFF790FB064B01211800FFF798
:1045700097FB044B012201211800FFF7B1FBC04655
:10458000BD4680BD00080040001000487E090020A4
:104590001E0A0020002243088B4274D303098B4279
:1045A0005FD3030A8B4244D3030B8B4228D3030C03
:1045B0008B420DD3FF22090212BA030C8B4202D3A5
:1045C0001212090265D0030B8B4219D300E0090ACD
:1045D000C30B8B4201D3CB03C01A5241830B8B42D6
:1045E00001D38B03C01A5241430B8B4201D34B03BF
:1045F000C01A5241030B8B4201D30B03C01A524124
:10460000C30A8B4201D3CB02C01A5241830A8B42A8
:1046100001D38B02C01A5241430A8B4201D34B0291
:10462000C01A5241030A8B4201D30B02C01A5241F5
:10463000CDD2C3098B4201D3CB01C01A52418309A9
:104640008B4201D38B01C01A524143098B4201D3E3
:104650004B01C01A524103098B4201D30B01C01A0E
:104660005241C3088B4201D3CB00C01A5241830888
:104670008B4201D38B00C01A524143088B4201D3B5
:104680004B00C01A5241411A00D201465241104615
:104690007047FFE701B5002000F0F0F802BDC0460A
:1046A0000029F7D076E7704703460B437FD40022FA
:1046B00043088B4274D303098B425FD3030A8B42B6
:1046C00044D3030B8B4228D3030C8B420DD3FF2220
:1046D000090212BA030C8B4202D31212090265D0EE
:1046E000030B8B4219D300E0090AC30B8B4201D3A1
:1046F000CB03C01A5241830B8B4201D38B03C01AE8
:104700005241430B8B4201D34B03C01A5241030B5E
:104710008B4201D30B03C01A5241C30A8B4201D30F
:10472000CB02C01A5241830A8B4201D38B02C01ABA
:104730005241430A8B4201D34B02C01A5241030A31
:104740008B4201D30B02C01A5241CDD2C3098B4216
:1047500001D3CB01C01A524183098B4201D38B0193
:10476000C01A524143098B4201D34B01C01A524136
:1047700003098B4201D30B01C01A5241C3088B427B
:1047800001D3CB00C01A524183088B4201D38B0066
:10479000C01A524143088B4201D34B00C01A524108
:1047A000411A00D201465241104670475DE0CA0FDF
:1047B00000D04942031000D34042534000229C469F
:1047C00003098B422DD3030A8B4212D3FC228901A9
:1047D00012BA030A8B420CD3890192118B4208D37F
:1047E000890192118B4204D389013AD0921100E0E1
:1047F0008909C3098B4201D3CB01C01A52418309F5
:104800008B4201D38B01C01A524143098B4201D321
:104810004B01C01A524103098B4201D30B01C01A4C
:104820005241C3088B4201D3CB00C01A52418308C6
:104830008B4201D38B00C01A5241D9D243088B421C
:1048400001D34B00C01A5241411A00D201466346BF
:1048500052415B10104601D34042002B00D5494223
:10486000704763465B1000D3404201B5002000F062
:1048700005F802BD0029F8D016E770477047C0461A
:10488000034B10B5002B02D0024800F005F810BD14
:1048900000000000A948000810B501000023002214
:1048A000002000F01BF810BD70B5094B094CE41A4C
:1048B000A41009D0084AA518AD00ED182B68013CDA
:1048C0009847043D002CF9D100F078F870BDC0463F
:1048D0003005002034050020FFFFFF3FF8B54446B7
:1048E0005F4656464D469B462F4BF0B41C68A423AA
:1048F0005B000500E0580E00904600284BD043684E
:104900001F2B0DDC5C1C002D21D102339B00446069
:104910001E5000203CBC90469946A246AB46F8BDCE
:10492000224B002B3CD0C8204000AFF30080002871
:1049300036D0A42200235200A15843600160A05049
:1049400040328350043283500124002DDDD09A0080
:1049500091468144424688214F467A50C4225200F3
:104960009046804442468739994012688A460A43F5
:104970009446424661461160842249465F46520091
:104980008F50022DC1D1020055468D32FF32116881
:104990000D431560B9E720004D30FF30E050AEE721
:1049A00001204042B6E7C046AC4A000800000000C3
:1049B000F8B5C046F8BC08BC9E467047F8B5C0467E
:1049C000F8BC08BC9E467047120100010000004080
:1049D0008304305700020102030100000902640051
:1049E00002010080320904000000010100000924D6
:1049F0000100011E0001010C240201010200040754
:104A00000100000924030201010001000904010062
:104A10000001020000090401010101020000072455
:104A200001020101000B24020104021001401F00D9
:104A30000905810540000101000725010002000071
:104A40000000000000000000000000000403090452
:104A5000260341004C004500480059004500520023
:104A60004B00450065006C00650063007400720037
:104A70006F006E00730000001C0341004300430000
:104A800045004C00450052004F004D0045005400C9
:104A900045005200822F00089E2F0008B02F00080A
:104AA000BE2F0008DE2F0008103000080001002093
:104AB00000A24A04000000000000000001020304FC
:104AC000060708099001000040420F001A03530036
:104AD00054004D00330032000000000000000000D0
:104AE000000000000000000002010000F52700089F
:104AF0002128000845290008512900085D290008DF
:104B0000AD290008652A0008C5290008ED2900081C
:104B1000152A000800000000400000000D120008E7
:104B2000092900080D1200080D1200080D120008D6
:104B30000D1200080D1200080D120008312900089E
:104B4000C849000812000000DC4900086D000000A0
:104B50004C4A000804000000504A000826000000EB
:104B6000784A00081C0000001C0000201A00000009
:104B700001000000DD4000080D1200080D120008C1
:104B80000D1200080D1200080D1200080D12000889
:104B90000D1200080D1200080D1200080D12000879
:104BA0000D1200080D1200080D1200080000000090
:104BB00000000000EC03002054040020BC0400208E
:104BC00000000000000000000000000000000000E5
:104BD00000000000000000000000000000000000D5
:104BE00000000000000000000000000000000000C5
:104BF00000000000000000000000000000000000B5
:104C000000000000000000000000000000000000A4
:104C10000000000000000000000000000000000094
:104C20000000000000000000000000000000000084
:104C30000000000000000000000000000000000074
:104C40000000000000000000000000000000000064
:104C50000000000000000000010000000000000053
:104C60000E33CDAB34126DE6ECDE05000B00000018
:104C70000000000000000000000000000000000034
:104C80000000000000000000000000000000000024
:104C90000000000000000000000000000000000014
:104CA0000000000000000000000000000000000004
:104FD000000000000000000081480008B101000846
:084FE000890100080000000037
:0400000508000000EF
:00000001FF
